:020000040800F2
:1000000050F8002069020008E118000841170008B4
:10001000DD18000875030008611E000800000000DC
:10002000000000000000000000000000A90100081E
:1000300097040008000000000502000821190008CC
:10004000830200088302000883020008830200087C
:10005000830200088302000883020008830200086C
:10006000830200088302000883020008830200085C
:10007000830200088302000883020008830200084C
:1000800083020008830200088302000800000000C9
:1000900000000000000000000000000083020008D3
:1000A00083020008311A0008830200088302000856
:1000B000830200088302000883020008830200080C
:1000C00083020008830200088302000883020008FC
:1000D0008302000883020008830200080000000079
:1000E0008302000883020008830200080000000069
:1000F0000000000000000000000000008302000873
:100100000000000083020008830200088302000848
:1001100000000000000000000000000000000000DF
:10012000830200087903000889030008830200089D
:100130008302000800000000000000000000000032
:100140000000000000000000000000008302000822
:100150008302000899030008A9030008830200082D
:100160008302000883020008000000000000000075
:10017000000000000000000000000000000000007F
:1001800000000000830200080000000000000000E2
:1001900083020008DFF80CD000F0DAF800480047CE
:1001A000851E000850F800202C4B19680868B0E83C
:1001B000F04F80F30988BFF36F8F4FF0000080F39A
:1001C000118870470000000008480068006880F34C
:1001D00008884FF0000080F3148862B661B6BFF360
:1001E0004F8FBFF36F8F00DF00BF00BF08ED00E04F
:1001F000DFF80C00016841F470010160704700BF36
:1002000088ED00E0EFF30980BFF36F8F134B1A689E
:100210001EF0100F08BF20ED108A20E9F04F10608B
:1002200009B44FF0500080F31188BFF34F8FBFF334
:100230006F8F02F011FA4FF0000080F3118809BCB3
:1002400019680868B0E8F04F1EF0100F08BFB0EC56
:10025000108A80F30988BFF36F8F70470000002079
:10026000EFF30580704700000648804706480047C6
:10027000FEE7FEE7FEE7FEE7FEE7FEE7FEE7FEE756
:10028000FEE7FEE7CD190008950100082DE9F05FB3
:100290000546002092469B468846064681464024F5
:1002A0001BE0284641464746224600F041F85346A7
:1002B0005A46C01A914110D311461846224600F002
:1002C00028F82D1A67EB01084F462246012000212D
:1002D00000F01FF817EB00094E41201EA4F10104A5
:1002E000DFDC484631462A464346BDE8F09FD2B29D
:1002F00001E000F8012B491EFBD270470022F6E70F
:1003000010B513460A4604461946FFF7F0FF20468B
:1003100010BD202A04DB203A00FA02F100207047C9
:100320009140C2F1200320FA03F319439040704733
:10033000202A04DB203A21FA02F00021704721FA3A
:1003400002F3D040C2F120029140084319467047A1
:10035000064C074D06E0E06840F0010394E8070012
:1003600098471034AC42F6D3FFF718FF182B00085B
:10037000382B000800BFFEE710B5024800F08EF8E9
:1003800010BD0000B4F3002010B5024800F086F85C
:1003900010BD000094F2002010B5024800F07EF875
:1003A00010BD000054F3002010B5024800F076F8AC
:1003B00010BD0000F4F20020014608781038182320
:1003C000B0FBF3F20848805CC865032A05D90868C9
:1003D0006FF30900001D886503E008686FF30900EA
:1003E0008865886D70470000F82A000801460020E3
:1003F0008A6A8B69CBB932B1012A0DD0022A03D0A7
:10040000032A10D10EE000BFCB6A03F08073B3F172
:10041000807F00D1012007E0CB6AB3F1C07F00D11B
:10042000012001E000E000BF34E08B69B3F5005F1C
:100430001AD132B1012A07D0022A03D0032A11D1DE
:100440000AE000BF01200EE0CB6A03F08073B3F135
:10045000807F00D1012006E0CB6AB3F1C07F00D1DC
:10046000012000E000BF15E032B1012A05D0022AC8
:1004700004D0032A0CD103E000BF00BF012008E034
:10048000CB6A03F08073B3F1807F00D1012000E0DC
:1004900000BF00BF7047704770470000F8B50446C2
:1004A000002000908C4800684FF41651B0FBF1F723
:1004B000A56D2E6894F85C1008208840304098B1F3
:1004C0002068006800F0040070B12068006820F027
:1004D00004002168086094F85C1008208840A86037
:1004E000606D40F00100606594F85C100120884068
:1004F000304068B12068406900F0800040B194F855
:100500005C1001208840A860606D40F002006065CA
:1005100094F85C1004208840304068B1206800687E
:1005200000F0020040B194F85C1004208840A860FC
:10053000606D40F00400606594F85C101020884005
:10054000304078B32068006800F0080050B394F899
:100550005C1010208840A8602068006800F48020AB
:1005600080B12068006800F4002028B9206CC8B170
:100570002046216C884715E0A06C98B12046A16CFC
:1005800088470FE02068006800F4807028B9206870
:10059000006820F0080021680860206C10B1204637
:1005A000216C884794F85C10202088403040002857
:1005B00065D02068006800F0100000285FD094F833
:1005C0005C1020208840A86094F83500052828D1C8
:1005D0002068006820F016002168086020684069E3
:1005E00020F0800021684861206C08B9A06C28B117
:1005F0002068006820F008002168086094F85C100A
:100600003F208840A86000BF002084F8340000BF6D
:10061000012084F83500206D10B12046216D8847F7
:10062000F8BD2068006800F4802080B12068006870
:1006300000F4002028B9606C10B12046616C884736
:100640001DE0E06BD8B12046E16B884717E02068D9
:10065000006800F4807068B92068006820F010001D
:100660002168086000BF002084F8340000BF01202A
:1006700084F83500E06B10B12046E16B8847606D6F
:1006800038B3606D00F00100F0B1052084F835004A
:100690002068006820F001002168086000BF009811
:1006A000401C0090B84200D905E02068006800F0C6
:1006B00001000028F3D100BF00BF002084F83400FF
:1006C00000BF012084F83500E06C10B12046E16CD9
:1006D000884700BFA4E700006C0000202DE9F0412E
:1006E0000446002500F064F9074614B90120BDE86E
:1006F000F081606A00B100BF00BF002084F83400C0
:1007000000BF022084F835002068006820F0010056
:10071000216808600AE000F04BF9C01B052805D9E4
:1007200020206065032084F83500E0E72068006839
:1007300000F001000028EED120680568214805403E
:10074000D4E901010843E16808432169084361696C
:100750000843A1690843E1690843216A0843054346
:10076000606A042803D1D4E90B01084305432068DB
:1007700005602068456925F00705606A0543606AE1
:1007800004280DD1A06A0543E06A48B12046FFF76E
:100790002DFE28B140206065012084F83500A6E7D1
:1007A000206845612046FFF707FE064694F85C1076
:1007B0003F208840B06000206065012084F835004B
:1007C000002094E73F8010F0F8B503460A46002564
:1007D000002400200021CDE0012606FA01F516686C
:1007E00006EA0504AC4273D15668022E02D0566860
:1007F000122E13D1CF0803F1200656F827004E071A
:10080000F70E0F26BE40B0434F07FF0E1669BE40DD
:100810003043CF0803F1200646F8270018684F0040
:100820000326BE40B043167906F003064F00BE40D3
:10083000304318605668012E08D05668022E05D045
:100840005668112E02D05668122E13D198684F00A8
:100850000326BE40B0434F00D668BE403043986088
:10086000586801268E40B0431679C6F300168E40B4
:1008700030435860D8684F000326BE40B0434F0055
:100880009668BE403043D860566806F08056B6F190
:10089000805F6ED100BF00260096384E366846F461
:1008A0008046364F3E603E46366806F480460096E7
:1008B00000BF00BF324E8F0856F827008E07370F53
:1008C0000F26BE40B0432F4EB34202D1002615E0A2
:1008D0004FE02D4EB34201D101260FE02B4EB34223
:1008E00001D102260AE02A4EB34201D1032605E0D7
:1008F000284EB34201D1042600E007268F073F0FA0
:10090000BE4030431E4E8F0846F82700224E306806
:10091000A043566806F48036B6F5803F00D12043E8
:100920001D4E3060361D3068A043566806F4003610
:10093000B6F5003F00D12043174E361D3060361DFE
:100940003068A043566806F48016B6F5801F00D1C3
:100950002043114E08363060361D3068A04356687B
:1009600006F40016B6F5001F00D120430A4E0C36DF
:100970003060491C1029FFF42FAFF8BD4438024005
:100980000838014000000240000402400008024014
:10099000000C024000100240003C014042694A4005
:1009A000426170470AB1816101E00B0483617047C5
:1009B000014800687047000060000020034800689C
:1009C0000349097808440149086070476000002025
:1009D0006800002010B50D48006840F400700B4915
:1009E00008600846006840F48060086008460068B7
:1009F00040F480700860032000F0C0F8002000F090
:100A000007F800F04BF8002010BD0000003C024049
:100A100070B588B004460025002600222146192022
:100A200000F06DF8192000F05DF800BF0020019083
:100A30001648006840F00100144908600846006844
:100A400000F00100019000BF00BF02A903A800F060
:100A50006BF900F0A1F905460D48B5FBF0F0461E14
:100A60000C480D49086040F2E7310B48C160466010
:100A700000210161816000F032FC20B9064800F0DD
:100A800049FC08B070BD0120FBE70000443802407B
:100A900040420F000000014014F4002008B500BFE0
:100AA000002000900E48006840F480400C49086027
:100AB0000846006800F48040009000BF00BF00BFFF
:100AC00000200090081F006840F08050091F086057
:100AD0000846006800F08050009000BF00BF08BDCD
:100AE0004438024000BF00F01F020121914042093A
:100AF000920002F1E022C2F8001100BF70472DE918
:100B0000F05F80460D461646002700F0EDFE0746D2
:100B100039462A46334601F00700C0F1070ABAF108
:100B2000040F02D94FF0040A01E0C0F1070AD146D0
:100B300000F1040ABAF1070F02D24FF0000A01E0F7
:100B4000A0F1030AD4464FF0010A0AFA09FAAAF101
:100B5000010A0AEA020A0AFA0CFA4FF0010B0BFA30
:100B60000CFBABF1010B0BEA030B4AEA0B04214629
:100B7000404600F0C1FEBDE8F09F000000BF00F05D
:100B80000702064B19684FF6FF031940044B0B434D
:100B900043EA0221014B196000BF70470CED00E0F1
:100BA0000000FA057047000070B504460D460CB908
:100BB000012070BD5848006800F00F00A84209D21B
:100BC00055490D700846006800F00F00A84201D09A
:100BD0000120EEE7207800F0020002281DD12078E5
:100BE00000F00400042805D14C48006840F4E050AF
:100BF0004A490860207800F00800082805D14748D5
:100C0000006840F46040454908604448006820F0AE
:100C1000F000A168084341490860207800F0010015
:100C2000A8B36068012807D13C4808380068C0F3C1
:100C30004040B8B90120BCE76068022802D0606873
:100C4000032807D1354808380068C0F3406048B928
:100C50000120AEE7314808380068C0F3400008B909
:100C60000120A6E72D48006820F0030061680843D2
:100C70002A490860FFF79CFE064609E0FFF798FE48
:100C8000801B41F28831884202D9032091E707E0B6
:100C90002248006800F00C006168B0EB810FEDD1D4
:100CA0001D48006800F00F00A84209D91A490D70CC
:100CB0000846006800F00F00A84201D0012078E744
:100CC000207800F00400042807D11448006820F4BC
:100CD000E050E168084311490860207800F00800FE
:100CE000082808D10D48006820F46040216940EAD6
:100CF000C1000A49086000F05FF808490968C1F3BB
:100D00000311074A515CC840064908600020FFF7FC
:100D10007FFE00204DE70000003C02400838024002
:100D2000002B00086C0000200F2202600D4A1268A0
:100D300002F0030242600B4A126802F0F002826085
:100D4000084A126802F4E052C260064A126802F4CD
:100D50006042D2080261044A126802F00F020A607F
:100D60007047000008380240003C0240014800681B
:100D7000704700006C00002000B5FFF7F7FF044942
:100D80000968C1F38221034A515CC84000BD0000DC
:100D900008380240102B000800B5FFF7E7FF0449B0
:100DA0000968C1F34231034A515CC84000BD0000EC
:100DB00008380240102B00082DE9F04700240025D8
:100DC0000026A1462548006800F00C0020B1042848
:100DD00005D008283AD105E0DFF8849039E0DFF843
:100DE000849036E01D48001F006800F03F041B4857
:100DF000001F006800F4800078B11A481749091FE5
:100E00000968C1F38811A0FB017001462246002346
:100E10003846FFF73BFA05460EE011480F49091F17
:100E20000968C1F38811A0FB017001462246002326
:100E30003846FFF72BFA05460848001F0068C0F344
:100E40000140401C4600B5FBF6F902E0DFF81090C7
:100E500000BF00BF4846BDE8F087000008380240E8
:100E60000024F40000127A0010B50648006800F073
:100E70008000802805D1FFF795FE80200149891C5C
:100E8000087010BD0C380240F8B504460CB90120BA
:100E9000F8BD207800F00100002874D0F9480068FF
:100EA00000F00C0004280DD0F648006800F00C009B
:100EB000082813D1F348001F006800F48000B0F543
:100EC000800F0BD1EF4808380068C0F3404000287D
:100ED00059D06068002856D10120D9E700BF60686A
:100EE000B0F5803F08D1E7480838006840F480300A
:100EF000E449083908601EE06068B0F5A02F0DD104
:100F0000E0480838006840F48020DE49083908606D
:100F10000846006840F4803008600CE0D948083882
:100F2000006820F48030D749083908600846006816
:100F300020F48020086000BF606890B1FFF738FDA2
:100F4000054606E0FFF734FD401B642801D9032065
:100F50009EE7CC4808380068C0F340400028F1D034
:100F600011E0FFF725FD054606E0FFF721FD401BD8
:100F7000642801D903208BE7C24808380068C0F311
:100F800040400028F1D1207800F0020002285FD113
:100F9000BC48006800F00C0058B1BA48006800F086
:100FA0000C0008281CD1B748001F006800F480001E
:100FB000B0B9B44808380068C0F3400020B1E06818
:100FC000012801D0012063E7AE480838006820F00E
:100FD000F800216940EAC100AA490839086037E0F1
:100FE000E06800B30120A8490860FFF7E1FC05466E
:100FF00006E0FFF7DDFC401B022801D9032047E78C
:10100000A04808380068C0F340000028F1D09D488F
:101010000838006820F0F800216940EAC1009949C9
:101020000839086014E0002097490860FFF7C0FC09
:10103000054606E0FFF7BCFC401B022801D903204F
:1010400026E7904808380068C0F340000028F1D136
:10105000207800F0080008282CD16069A8B1012090
:101060008A490860FFF7A4FC054606E0FFF7A0FCEC
:10107000401B022801D903200AE782486C3000682F
:10108000C0F340000028F1D014E000207F49086040
:10109000FFF78EFC054606E0FFF78AFC401B02289E
:1010A00001D90320F4E677486C300068C0F34000B3
:1010B0000028F1D1207800F00400042870D1002627
:1010C00070483830006800F0805090B900BF0020B0
:1010D00000906C483830006840F0805069493831E1
:1010E00008600846006800F08050009000BF00BF14
:1010F00001266748006800F48070B0B96448006851
:1011000040F4807062490860FFF752FC054606E033
:10111000FFF74EFC401B022801D90320B8E65C48CB
:10112000006800F480700028F2D000BFA068012899
:1011300008D154486830006840F0010051496831D6
:1011400008601DE0A06805280DD14E486830006891
:1011500040F004004B49683108600846006840F0E0
:10116000010008600CE047486830006820F001008A
:101170004449683108600846006820F004000860AF
:1011800000BFA068A8B1FFF713FC054609E0FFF710
:101190000FFC401B41F28831884202D9032077E6D8
:1011A00026E0384868300068C0F340000028EED0E0
:1011B00013E0FFF7FDFB054608E0FFF7F9FB401BD6
:1011C00041F28831884201D9032061E62D48683018
:1011D0000068C0F340000028EFD1012E07D1294854
:1011E0003830006820F0805026493831086000BF50
:1011F000A069B8B32348006800F00C0008285ED04E
:10120000A069022846D100201F490866FFF7D0FBDD
:10121000054606E0FFF7CCFB401B022801D903205E
:1012200036E6184808380068C0F340600028F1D15D
:10123000D4E907010843616A40EA81110122A06AEA
:10124000C2EB500041EA00412C20005D41EA006001
:101250000C49091F086001200B490866FFF7A8FB2D
:10126000054607E02DE0FFF7A3FB401B022801D94C
:1012700003200DE6034808380068C0F340600028EA
:10128000F1D01EE00838024000004742800E47427D
:101290000070004000200C490866FFF789FB0546F6
:1012A00006E0FFF785FB401B022801D90320EFE58C
:1012B00006480068C0F340600028F2D101E0012038
:1012C000E6E50020E4E50000000047420038024067
:1012D000704710B5FFF7FCFF10BD7047704710B5A1
:1012E00004460CB9012010BD94F8390028B900203B
:1012F00084F83800204600F00CF8022084F8390009
:10130000211D206800F0A0FB012084F83900002096
:10131000E9E7704701460868C06840F001000A68C4
:10132000D0600868006840F001000A681060002082
:101330007047704710B5044620680069C0F340004C
:10134000D8B12068C068C0F34000B0B16FF00200AF
:1013500021680861012020762068806900F0030080
:1013600018B12046FFF7E5FF05E0204600F0ADF894
:10137000204600F0ABF80020207620680069C0F31A
:101380008000D8B12068C068C0F38000B0B16FF0B1
:10139000040021680861022020762068806900F43A
:1013A000407018B12046FFF7C4FF05E0204600F06A
:1013B0008CF8204600F08AF800202076206800692A
:1013C000C0F3C000D8B12068C068C0F3C000B0B19D
:1013D0006FF0080021680861042020762068C06949
:1013E00000F0030018B12046FFF7A3FF05E02046F8
:1013F00000F06BF8204600F069F8002020762068A5
:101400000069C0F30010D8B12068C068C0F30010B4
:10141000B0B16FF0100021680861082020762068C4
:10142000C06900F4407018B12046FFF782FF05E064
:10143000204600F04AF8204600F048F800202076C8
:101440002068006900F0010058B12068C06800F011
:10145000010030B16FF0010021680861204600F002
:1014600036F820680069C0F3C01058B12068C06821
:10147000C0F3C01030B16FF08000216808612046D1
:10148000FFF72BFF20680069C0F3801058B1206877
:10149000C068C0F3801030B16FF04000216808616F
:1014A000204600F015F820680069C0F3401058B1DC
:1014B0002068C068C0F3401030B16FF02000216890
:1014C00008612046FFF70AFF10BD7047704770475C
:1014D000704710B504460CB9012010BDA06900B1D9
:1014E00000E000BF94F8390028B9002084F83800E3
:1014F000204600F027F8242084F839002068C068CE
:1015000020F400502168C860204600F0F5FA2068F9
:10151000006920F49040216808612068406920F04B
:101520002A00216848612068C06840F400502168A2
:10153000C8600020E063202084F8390084F83A0075
:101540000020CAE710B586B00446142101A8FEF7B2
:10155000D5FE7149206888426CD100BF0020009000
:101560006E48006840F010006C490860084600684A
:1015700000F01000009000BF00BF00BF00200090EE
:1015800066481438006840F0010064491439086066
:101590000846006800F00100009000BF00BF4FF453
:1015A000C06001900220029001200390032004906B
:1015B0000720059001A95A48FFF706F959485A49EA
:1015C00008604FF000604860002157488160C160AA
:1015D0004FF480610161002141618161C16101625B
:1015E0004162FFF77BF808B1FEF756FF00BF4E4897
:1015F0006063846300BF4B4878304C4908604FF00B
:10160000006048604021494881600021C1604FF47A
:1016100080610161002141618161C16101624162BA
:10162000FFF75CF808B1FEF737FF00BF3F482063C3
:1016300084636FE03E49206888426BD100BF002080
:1016400000903648006840F02000344908600846A1
:10165000006800F02000009000BF00BF00BF002025
:1016600000902E481438006840F004002B491439CB
:1016700008600846006800F00400009000BF00BF4A
:10168000C0200190022002900120039003200490CA
:101690000820059001A92748FFF796F821486030F7
:1016A000254908604FF02060486040212248816051
:1016B0000021C1604FF480610161002141618161BD
:1016C000C16101624162FFF709F808B1FEF7E4FE6B
:1016D00000BF19482063846300BF124818381749B7
:1016E000086080054860002114488160C1604FF4A3
:1016F00080610161002141618161C16101624162DA
:10170000FEF7ECFF08B1FEF7C7FE00BF0B486063B1
:10171000846300BF06B010BD001001404438024091
:10172000000002404064024094F20020F4F20020E5
:10173000001401400008024054F30020B4F30020DC
:1017400000BFFEE708B500BF002000901648006803
:1017500040F48000144908600846006800F48000E6
:10176000009000BF00BF002211463920FFF7C7F9E3
:101770003920FFF7B7F9002211463A20FFF7BFF9E9
:101780003A20FFF7AFF9002211464520FFF7B7F9DD
:101790004520FFF7A7F9002211464620FFF7AFF9D1
:1017A0004620FFF79FF908BD3038024000B587B0EA
:1017B000142102A8FEF7A2FD00BF002001902748D7
:1017C000006840F08000254908600846006800F085
:1017D0008000019000BF00BF00BF002001900846BC
:1017E000006840F0020008600846006800F002004F
:1017F000019000BF00BF00BF0020019008460068B4
:1018000040F0040008600846006800F00400019001
:1018100000BF00BF00BF002001900846006840F0F4
:10182000010008600846006800F00100019000BF58
:1018300000BF00224FF4E0410948FFF7B3F84FF42E
:10184000E0400290012003900220049000200590C7
:1018500002A90348FEF7B8FF07B000BD30380240C8
:101860000004024010B50C480C4908604FF4E13008
:101870004860002109488160C1604FF480610161C6
:101880000C21416100218161C161FFF722FE08B195
:10189000FEF702FE10BD00000010014014F200200F
:1018A00010B50C480C4908604FF4E1304860002145
:1018B00009488160C1604FF4806101610C21416180
:1018C00000218161C161FFF704FE08B1FEF7E4FD6C
:1018D00010BD00000014014054F2002000BFFEE7DC
:1018E00010B5FFF7C1FA10BD02480068C0F302202E
:1018F000704700000CED00E010B5002807DA0A0779
:10190000140E054A00F00F031B1FD45403E00A070E
:10191000130E024A135410BD18ED00E000E400E07D
:1019200010B500BF502080F31188BFF34F8FBFF375
:101930006F8F00BF00F0BAFF18B14FF0805004491C
:10194000086000BF002080F3118800BF10BD0000B8
:1019500004ED00E000B593B0302107A8FEF7CEFCFF
:10196000142102A8FEF7CAFC00BF0020019016480F
:10197000006820F4404040F40040134908600846E5
:10198000006800F44040019000BF00BF02200790B3
:1019900001200A9010200B9000200D9007A8FFF75F
:1019A00073FA08B1FEF778FD0F2002900020039033
:1019B000049005900690002102A8FFF7F5F808B101
:1019C000FEF76AFD13B000BD0070004014480068C7
:1019D00040F47000124908601248006840F00100AD
:1019E0001049086000200F49083108600D48006860
:1019F0000D4908400B4908600C48091D0860081F84
:101A0000006820F48020091F0860002005490C317F
:101A100008604FF00060024980390860704700009C
:101A200088ED00E000380240FFFFF6FE1030002491
:101A300010B50448FFF77EFCFEF7C0FFFFF749FC36
:101A400010BD000014F4002000220268234B9842CD
:101A50000BD0B0F1804F08D0214B984205D0214BDC
:101A6000984202D0204B984201D1012300E000238C
:101A70001BB122F070024B681A43184B984214D0E5
:101A8000B0F1804F11D0164B98420ED0154B9842B2
:101A90000BD0154B984208D0144B984205D0144BEC
:101AA000984202D0134B984201D1012300E0002359
:101AB0001BB122F44072CB681A4302608B68C36288
:101AC0000B688362054B984201D1012300E000239B
:101AD0000BB10B69036301234361704700000140B0
:101AE0000004004000080040000C0040004001409D
:101AF00000440140004801402DE9F0410446002522
:101B00002068056925F44055E068054320680561B3
:101B10002068C56849F20C6085432169A0680843C4
:101B200061690843E169084305432068C56020688E
:101B3000456925F44075A069054320684561E06961
:101B4000B0F5004F7ED1C4492068884203D0C34914
:101B5000206888425DD1FFF71FF900EBC00101EB5F
:101B6000001061684900B0FBF1F06421B0FBF1F0B6
:101B70000601FFF711F900EBC00101EB00106168ED
:101B80004900B0FBF1F7FFF707F900EBC00101EBEB
:101B9000001061684900B0FBF1F06421B0FBF1F086
:101BA00000EBC00101EB0010A7EB8000322101EB3C
:101BB000C0006421B0FBF1F000F0F80006EB400635
:101BC000FFF7EAF800EBC00101EB00106168490083
:101BD000B0FBF1F7FFF7E0F800EBC00101EB0010FC
:101BE00061684900B0FBF1F06421B0FBF1F000EB5B
:101BF000C00101EB0010A7EB8000322101EBC00017
:101C00006421B0FBF1F000F00700304421688860E7
:101C100020E1FFF7B1F800EBC00101EB00106168B3
:101C20004900B0FBF1F06421B0FBF1F00601FFF7D1
:101C3000A3F800EBC00101EB001061684900B0FBA4
:101C4000F1F700E045E0FFF797F800EBC00101EB8A
:101C5000001061684900B0FBF1F06421B0FBF1F0C5
:101C600000EBC00101EB0010A7EB8000322101EB7B
:101C7000C0006421B0FBF1F000F0F80006EB400674
:101C8000FFF77AF800EBC00101EB00106168490032
:101C9000B0FBF1F7FFF770F800EBC00101EB0010AB
:101CA00061684900B0FBF1F06421B0FBF1F000EB9A
:101CB000C00101EB0010A7EB8000322101EBC00056
:101CC0006421B0FBF1F000F0070030442168886027
:101CD000C0E061492068884203D06049206888429A
:101CE0005CD1FFF759F800EBC00101EB001061680F
:101CF0008900B0FBF1F6FFF74FF800EBC00101EBF4
:101D0000001061688900B0FBF1F06421B0FBF1F0D4
:101D100000EBC00101EB0010A6EB8000322101EBCB
:101D200000106421B0FBF1F000F0F006FFF734F88A
:101D300000EBC00101EB001061688900B0FBF1F01D
:101D40006421B0FBF1F006EB0016FFF725F800EB7D
:101D5000C00101EB001061688900B0FBF1F7FFF7EB
:101D60001BF800EBC00101EB001061688900B0FBBB
:101D7000F1F06421B0FBF1F000EBC00101EB0010C9
:101D8000A7EB8000322101EB00106421B0FBF1F0E1
:101D900000F00F003044216888605BE0FEF7ECFF44
:101DA00000EBC00101EB001061688900B0FBF1F6A7
:101DB000FEF7E2FF00EBC00101EB00106168890053
:101DC000B0FBF1F06421B0FBF1F000EBC00101EBDE
:101DD0000010A6EB8000322101EB00106421B0FB63
:101DE000F1F000F0F006FEF7C7FF00EBC00101EBD9
:101DF000001061688900B0FBF1F06421B0FBF1F0E4
:101E000006EB0016FEF7B8FF00EBC00101EB001077
:101E100061688900B0FBF1F7FEF7AEFF00EBC0018F
:101E200001EB001061688900B0FBF1F06421B0FBA8
:101E3000F1F000EBC00101EB0010A7EB80003221B4
:101E400001EB00106421B0FBF1F000F00F00304412
:101E500021688860BDE8F081001001400014014055
:101E600000BFFEE702E008C8121F08C1002AFAD12D
:101E700070477047002001E001C1121F002AFBD10A
:101E8000704700001CB5FEF7A5FDFFF763FDFFF7E7
:101E90008DFCFFF757FCFFF7E5FCFFF701FD002085
:101EA0000090034680220DA101900E4800F0CEFC68
:101EB00000200090034680220BA101900C4800F006
:101EC000C5FC00200090034680220AA101900B4827
:101ED00000F0BCFC00F074FB00BFFEE75245445F1D
:101EE0004C454400492500084752455F4C45440095
:101EF000C9230008424C555F4C454400AD230008FF
:101F00002DE9F04105460E461C4807681C4800684C
:101F1000001D00F037FA50B91948006890F82C10ED
:101F20000120884017490968814316480160681CF0
:101F300038B936B112480168091D134800F07CFA1F
:101F40001AE07C190E4800684460BC4207D20C4875
:101F50000168091D0D48006800F054FA0CE00848BB
:101F60000168091D0A48006800F04CFA0948006839
:101F7000844201D207480460BDE8F08114000020CB
:101F800000000020180000200002002008000020AF
:101F9000040000203000002010B5044600F058FA7C
:101FA00023480068401C224908602248006840B964
:101FB000204804600846006801280DD100F002F9AD
:101FC0000AE01D48006838B91A480068C06AE16A2A
:101FD000884201D81748046018480068401C174917
:101FE000086094F82C1001208840154909680843BE
:101FF00013490860E16A01EB8101124A02EB81009A
:10200000211D00F019FA00F04DFA0B48006868B184
:1020100008480068C06AE16A884207D24FF08050E1
:1020200009490860BFF34F8FBFF36F8F10BD0000E9
:1020300010000020000000201C0000202C000020C8
:10204000180000207000002004ED00E010B516E03C
:1020500000F0FEF90C48C068C468201D00F092F939
:102060000A480068401E0949086009480068401E87
:102070000749086000F016FA204600F00BF8044803
:1020800000680028E4D110BDEC0100201000002001
:102090000C00002010B50446206B00F021FA204609
:1020A00000F01EFA10BD00000A4A22F007000A4A9A
:1020B00010600022084B5A604EF6F872074B5A60C7
:1020C00000221A6001464EF6F8724A601A460A600B
:1020D000704700001C020020480000205000002033
:1020E00000BFFFF7B3FF064800680128F9D94FF099
:1020F000805004490860BFF34F8FBFF36F8FF0E744
:102100007000002004ED00E02DE9FF5F81460E46DF
:102110009246DDE90E7B109C56B900BF502080F33B
:102120001188BFF34F8FBFF36F8F00BF00BFFEE773
:10213000AAF10100216B01EB800828F0070808F0E4
:10214000070008B9012000E0002050B900BF50206E
:1021500080F31188BFF34F8FBFF36F8F00BF00BFB5
:10216000FEE7002507E0715D04F134004155705D24
:1021700000B902E06D1C102DF5D300BF00214320F3
:102180000155102F00D30F27E762201D00F037F90B
:1021900004F1180000F033F92461C7F11000A061C8
:1021A00064620020606484F8480049464046039A0F
:1021B00000F0D2F82060BBF1000F01D0CBF8004056
:1021C000BDE8FF9F10B5002407E004EB84010F4A2F
:1021D00002EB810000F006F9641C102CF5D30C48CA
:1021E00000F000F90B4800F0FDF80B4800F0FAF899
:1021F0000A4800F0F7F80A4800F0F4F804480949E2
:10220000086004480849086010BD00007000002004
:10221000B0010020C4010020D8010020EC01002002
:102220000002002004000020080000200A4909687C
:10223000096809B9012100E0002121B14FF0FF3107
:10224000064A116006E004490968C968C868034A7B
:102250004168116070470000040000203000002039
:102260000E480068401C08B9012000E0002050B969
:1022700000BF502080F31188BFF34F8FBFF36F8FE3
:1022800000BF00BFFEE700BF502080F31188BFF3FE
:102290004F8FBFF36F8F00BF00BFFEE73C000020F1
:1022A0002DE9F04104464FF0000800F0CDF9264832
:1022B000006820B9FFF7F8FE01202349086044B107
:1022C000083404F0070020B104F00700C0F1080052
:1022D0000444002C32D04EF6F87084422ED21B4FAC
:1022E0003846056801E02F462D686868A04202D292
:1022F00028680028F7D1164885421FD0386800F1B9
:102300000808286838606868001B102810D92E1942
:102310006868001B70606C6071680C4800E00068C1
:10232000026852688A42FAD302683260066000BFCF
:10233000084968680968081A0649086000F05AFBED
:102340004046BDE8F08100005C000020480000200D
:102350005000002058000020001F4FF080730360E1
:10236000001F21F001030360001F054B03601438B8
:102370000260001F6FF00203036020387047000006
:102380006122000801460A69D1E901309860D1E96B
:10239000010358605068884201D18868506000206D
:1023A00008611068401E10601068704700BF4FF44D
:1023B0007A6000F0D7F84FF400510248FEF7EEFAC9
:1023C000F5E700000004024000BF4FF4FA6000F09F
:1023D000C9F84FF480510248FEF7E0FAF5E7000033
:1023E0000004024000F1080141604FF0FF318160BC
:1023F00000F10801C1600161002101607047002106
:102400000161704710B502460B685C1C0CB910697D
:1024100007E002F1080000E04068446824689C423C
:10242000FAD944684C604C68A160886041600A61D8
:102430001468641C146010BD42684A6093688B6025
:10244000936859609160086103685B1C0360704782
:1024500000BF502080F31188BFF34F8FBFF36F8F01
:1024600000BF0E480068401C0C4908600846006820
:10247000012812D10A480068C0B208B9012000E062
:10248000002050B900BF502080F31188BFF34F8F58
:10249000BFF36F8F00BF00BFFEE770473C00002016
:1024A00004ED00E00D48006850B900BF502080F3F3
:1024B0001188BFF34F8FBFF36F8F00BF00BFFEE7E0
:1024C00006480068401E054908600846006820B9B3
:1024D000002080F3118800BF00BF70473C0000203F
:1024E00070B506463546B6B1083D2C4600F0ACF84E
:1024F0006168094800E00068026852688A42FAD3BD
:10250000026822600460054960680968084403495C
:10251000086000F06FFA70BD4800002058000020ED
:1025200000204FF0E02108618861064800684FF400
:102530007A71B0FBF1F0401E4FF0E02148610720B6
:10254000086170476C00002000BF4FF47A7000F003
:1025500009F84FF480410248FEF720FAF5E7000041
:102560000004024070B504460025D4B1124800684A
:1025700008B9012000E0002050B900BF502080F3CE
:102580001188BFF34F8FBFF36F8F00BF00BFFEE70F
:1025900000F05AF800212046FFF7B2FC00F02AFABA
:1025A00005463DB94FF0805004490860BFF34F8F96
:1025B000BFF36F8F70BD00003800002004ED00E015
:1025C0001CB51A4800210B468022CDE9001018A145
:1025D000194800F03BF90446012C15D100BF5020EA
:1025E00080F31188BFF34F8FBFF36F8F00BF4FF0A1
:1025F000FF3012490860012011490860002011498C
:10260000086000F06FF810E0601C08B1012000E0E5
:10261000002050B900BF502080F31188BFF34F8FC6
:10262000BFF36F8F00BF00BFFEE71CBD340000206A
:1026300049444C4500000000E12000083000002023
:102640001C0000201400002002480068401C0149C2
:1026500008607047380000201D48006818B101204C
:102660001C49086032E000201A4908601A480068D6
:10267000B0FA80F0C0F11F0101EB8100174A52F857
:10268000200008B1012000E0002050B900BF502018
:1026900080F31188BFF34F8FBFF36F8F00BF00BF70
:1026A000FEE701EB81020D4B03EB820042685268AA
:1026B000426000F108024368934202D142685268C6
:1026C00042604268D268064B1A6000BF7047000043
:1026D0003800002024000020180000207000002096
:1026E000000000201CB5524800685249884201D0C1
:1026F000012000E0002050B900BF502080F3118875
:10270000BFF34F8FBFF36F8F00BF00BFFEE7484896
:1027100000684849491E884201D0012000E000209D
:1027200050B900BF502080F31188BFF34F8FBFF323
:102730006F8F00BF00BFFEE73F4908460078019059
:10274000FF200A4610700846007800909DF80000AF
:1027500000F0F0009DF80020904201D1012000E03F
:10276000002050B900BF502080F31188BFF34F8F75
:10277000BFF36F8F00BF00BFFEE79DF8000000F0C1
:1027800050002E4A107007202D4A106009E02C4896
:102790000068401E2A4A10609DF800004006000EA6
:1027A00000909DF8000000F080008028EFD02448C1
:1027B0000068C0F10700042801D1012000E00020DA
:1027C00050B900BF502080F31188BFF34F8FBFF383
:1027D0006F8F00BF00BFFEE7194800680002184A6B
:1027E00010601046008800F4E0601060124A019802
:1027F00010700F482030006840F470000C49203100
:1028000008600846006840F070400860FFF788FEE6
:1028100000200C490860FDF7EBFC0B48006840F015
:10282000404009490860FDF7CFFC00201CBD0000B6
:1028300000ED00E071C20F4100E400E04000002024
:10284000440000203C00002034EF00E02DE9FF4F61
:1028500085B0804689461746DDE912ABB800FFF720
:102860001FFD064656B14C20FFF71AFD04460CB179
:10287000266304E03046FFF733FE00E000247CB11D
:102880000020CDE900ABCDE902403A46494640463A
:10289000089BFFF739FC2046FFF77EFB012501E08E
:1028A0004FF0FF35284609B0BDE8F08F2DE9F04123
:1028B0004FF0000844480068002877D1434800687A
:1028C000451C4248056015BB41480068006808B9CE
:1028D000012000E0002050B900BF502080F3118893
:1028E000BFF34F8FBFF36F8F00BF00BFFEE73848C5
:1028F0000768384800683649086036480760364837
:102900000068401C34490860FFF790FC00BF334862
:10291000006885423CD300BF2D480068006808B9B4
:10292000012000E0002020B14FF0FF302B4908606B
:102930002DE027480068C068C4686668B54202D2C6
:102940002648066023E0201DFFF71CFDA06A18B191
:1029500004F11800FFF716FD94F82C1001208840B0
:102960001F49096808431E490860E16A01EB8101BB
:102970001C4A02EB8100211DFFF75EFD1A49E06A47
:102980000968C96A8842C7D34FF00108C4E700BF8D
:1029900015480068C06A00EB8000124951F8200019
:1029A000012801D94FF0010805E0FFE70F48006852
:1029B000401C0E4908600E48006808B14FF001083D
:1029C0004046BDE8F08100003800002014000020DF
:1029D0000400002008000020280000203000002013
:1029E00018000020700000200000002020000020BF
:1029F0002400002070B5002400263648006850B935
:102A000000BF502080F31188BFF34F8FBFF36F8F4B
:102A100000BF00BFFEE7FFF71BFD2E480068401E09
:102A20002C4908600846006800284FD12A480068F1
:102A300000284BD024E02948C068C46804F118007D
:102A4000FFF7A0FC201DFFF79DFC94F82C1001203F
:102A5000884023490968084321490860E16A01EB7D
:102A60008101204A02EB8100211DFFF7E5FC1E4990
:102A7000E06A0968C96A884202D301201B490860DC
:102A80001648006808B9012000E000200028D2D0D4
:102A90000CB1FFF7CBFB1648056865B100BFFFF727
:102AA00005FF10B10120114908606D1E002DF6D1FF
:102AB00000200F4908600D48006838B10126300732
:102AC0000C490860BFF34F8FBFF36F8FFFF7EAFC2D
:102AD000304670BD3800002010000020D8010020D2
:102AE00018000020700000200000002024000020BA
:102AF0002000002004ED00E000061016000610166D
:102B0000000000000000000001020304060708099D
:102B10000000000001020304382B00080000002020
:102B200070000000641E0008A82B00087000002040
:102B3000E0F70000741E0008000000000000000024
:102B40000000000000000000000000000000000085
:102B50000000000000000000000000000000000075
:102B60000000000000000000000000000000000065
:102B700000000000AAAAAAAA0000000000000000AD
:102B80000000000000000000000000000000000045
:102B9000F8EF00000000000000000000100000003E
:082BA000010000000024F40014
:040000050800019559
:00000001FF
